:020000040000FA
:10000000900400206D0200007102000073020000E5
:100010007502000077020000790200000000000075
:100020000000000000000000000000007B02000053
:100030007D020000000000007F020000D1090000E6
:10004000830200008302000083020000830200009C
:10005000830200008302000083020000830200008C
:10006000830200008302000083020000830200007C
:10007000830200008302000083020000830200006C
:10008000830200008302000083020000830200005C
:10009000830200008302000083020000830200004C
:1000A000830200008302000083020000830200003C
:1000B0008302000083020000E905000083020000C3
:1000C000830200008302000083020000830200001C
:1000D000830200008302000083020000830200000C
:1000E00083020000830200008302000083020000FC
:1000F00083020000830200008302000083020000EC
:1001000083020000830200008302000083020000DB
:1001100083020000830200008302000083020000CB
:1001200083020000830200008302000083020000BB
:1001300083020000830200008302000083020000AB
:1001400000000000000000000000000000000000AF
:10015000830200008302000083020000830200008B
:10016000000000000000000000000000000000008F
:10017000000000000000000000000000000000007F
:10018000000000000000000000000000000000006F
:10019000000000000000000000000000000000005F
:1001A000000000000000000000000000000000004F
:1001B000830200008302000083020000830200002B
:1001C000830200008302000083020000830200001B
:1001D000830200008302000083020000830200000B
:1001E00083020000830200008302000083020000FB
:1001F00083020000830200008302000083020000EB
:10020000830200008302000083020000000000005F
:1002100083020000830200008302000083020000CA
:1002200083020000830200008302000083020000BA
:1002300083020000830200008302000083020000AA
:10024000830200008302000083020000830200009A
:10025000830200008302000083020000830200008A
:1002600083020000830200008302000000F00AB84D
:10027000FEE7FEE7FEE7FEE7FEE7FEE7FEE7FEE756
:10028000FEE7FEE700F002F800F03AF80AA090E876
:10029000000C82448344AAF10107DA4501D100F041
:1002A0002FF8AFF2090EBAE80F0013F0010F18BFD4
:1002B000FB1A43F0010318471C1100003C11000019
:1002C000103A24BF78C878C1FAD8520724BF30C882
:1002D00030C144BF04680C60704700000023002454
:1002E00000250026103A28BF78C1FBD8520728BF46
:1002F00030C148BF0B6070471FB51FBD10B510BDA2
:1003000000F029F81146FFF7F7FF00F0C3FB00F0FB
:1003100047F803B4FFF7F2FF03BC00F04FF800000A
:1003200072B6704762B67047EFF3108072B67047CE
:1003300080F31088704730BF704702480249014A75
:10034000024B704790000020900400209000002095
:10035000704770477047754600F02CF8AE460500B0
:100360006946534620F00700854618B020B5FFF7D0
:10037000E4FFBDE820404FF000064FF000074FF0CB
:1003800000084FF0000B21F00701AC46ACE8C009B3
:10039000ACE8C009ACE8C009ACE8C0098D467047BC
:1003A00010B50446AFF300802046BDE81040FFF7CB
:1003B000B0BF0000004870473000002001491820FD
:1003C000ABBEFEE726000200704700000821094A84
:1003D000916200BF0749496801F008010029F9D07E
:1003E0000449A8310968C1F30B000821014AD16012
:1003F000704700000080034008B52D48006840F0B9
:1004000010002C49C1F808012948006800902A48CA
:10041000006820F004002849086027482030006860
:1004200040F004002449203108602448006820F08E
:1004300004002249086021480C30006840F00400A4
:100440001E490C3108601B48D0F8000140F4803090
:100450001849C1F800011648006800900846D0F815
:10046000000120F4407012490839086040F223105E
:10047000134908620846006820F008000860084632
:10048000406920F4704048610D48A030006820F0B9
:100490000F00401C0A49A031086006200849C1F835
:1004A000A4000846006840F00800086008BD00008D
:1004B00008E10F4000E00F40004402401C450240AC
:1004C000008003400821094A916200BF074949683A
:1004D00001F008010029F9D00449A8310968C1F3E5
:1004E0000B000821014AD1607047000000900340D2
:1004F00008B52C48006840F010002B49C1F80801ED
:100500002848006800902948006820F0100027491A
:10051000086026482030006840F010002349203150
:1005200008602348006820F0100021490860204836
:100530000C30006840F010001D490C3108601A486A
:10054000D0F8000140F400301749C1F80001154807
:10055000006800900846D0F8000120F4407011496E
:100560000839086040F22310124908620846006802
:1005700020F0080008600846406920F47060486177
:100580000D48006820F00F0009300A49A0310860CA
:1005900006200849C1F8A4000846006840F0080099
:1005A000086008BD08E10F4000E00F400044024031
:1005B0001C45024000900340A080034008B5094854
:1005C000009002E00098401E009000980028F9D1A9
:1005D000009002E000980A3000900098B0F57A7F11
:1005E000F8D308BDBC310C0000B51848006800F015
:1005F000100088B1102015490831086014480068BF
:1006000018B901201249086006E011480068012865
:1006100002D100200E4908600C48006800F002007A
:1006200088B102200949083108600A48006818B9F1
:1006300001200849086006E006480068012802D148
:10064000002004490860FFF7B9FF00BD14540240C0
:10065000140000200C0000201848006840F0200022
:100660001749C1F8080117481749086016480830AB
:10067000006820F00E00144908310860081D006869
:100680004FF6F071884310490C3108600F4800683C
:1006900040F00E000D4908600C482030006820F042
:1006A0000E000A49203108600748001F006840F02A
:1006B0000E000549091F08607047000008E10F405F
:1006C00000E00F404B434F4C205502400054024085
:1006D0001848006840F001001749C1F808011748A0
:1006E000006820F0F00015490860081D006880B21D
:1006F000091D08601248006840F0F00010490860C9
:100700000E482038006840F0F0000C49203908609D
:100710000B482030006820F0F000094920310860C3
:1007200006480C38006840F0F00004490C390860B5
:100730007047000008E10F4000E00F4028450040EE
:1007400000440040411E014A91657047008002400C
:100750002C49096841F001012A4A116029493839B8
:10076000096841F00201274A383A116000BF254963
:100770003839096801F002010029F8D022490968D6
:1007800041F04001204A11602049096821F0706160
:100790001E4A11601146096841F080611160111F05
:1007A000096821F04001121F1160184910390968C9
:1007B00041F04001154A103A116014492439096882
:1007C00041F0C001114A243A11601149096E21F427
:1007D000F01141F480110E4A116600210D4A116496
:1007E000C8211166411E1165002191651146096CF1
:1007F00041F0010111641146896841F001019160E5
:100800007047000040E60F40205400402C55004047
:1008100000E00F4000800240411E014AD165704750
:100820000080024008B52949096841F00101274AC2
:10083000116026493839096841F00201234A383AE3
:1008400011601146096800912149096841F0800151
:100850001F4A11601F49096821F070411D4A11604B
:100860001146096841F080411160111F096821F0AB
:100870008001121F116017491039096841F0800189
:10088000144A103A11601449096E41F48011124A59
:1008900011661146096E21F4602111661146096E38
:1008A000116600210D4A116440F608415166411E4F
:1008B00011650021D1651146096C41F001011164F7
:1008C0001146896841F00201916008BD40E60F4081
:1008D000205400402C55004000E00F4000800240B2
:1008E00008B53548006840F020003449C1F80801D7
:1008F0003148006800903248324908601120091DD3
:1009000008603148006820F011002F4908602E4827
:100910002030006820F011002B4920310860294860
:10092000001F006840F011002649091F0860254893
:100930000C30006820F00F1022490C310860081FAD
:10094000006820F01100091F08601E481038006878
:1009500040F011001B49103908601B48001D006859
:1009600020F011001849091D0860081D006820F0DA
:100970001100091D0860081D006820F01100091D04
:100980000860112010491C3108600F4810300068C1
:1009900040F011000C49103108600C48006820F448
:1009A0007F0040F48000094908604FF080404FF01C
:1009B000E021C1F8000108BD08E10F4000E00F4050
:1009C0004B434F4C20550240005402401CE400E0D1
:1009D00001200F4908700F480068C01E0E490968C1
:1009E000884206D90D480068012802D108200C4928
:1009F000086009480068C01E06490968884206D98F
:100A000006480068012802D10420054908607047A3
:100A10001C0000200400002000000020080000202E
:100A2000FC53024010B500204FF0E0210861094856
:100A30004861002088610848006820F0604040F06C
:100A400080400549086007204FF0E0210861FFF76A
:100A500069FC10BDFF340C0020ED00E02DE9F047EB
:100A600004464FF000094FF28F10B0FBF4FA5046E5
:100A700000F02BFB07464FF06632054B00F08CFB75
:100A8000054600F0F5FA00F0FF094846BDE8F0879A
:100A900066662140FFF744FC0020F6490860F649ED
:100AA0000860F6490860F6490860FFF7A5FCFFF703
:100AB0001FFD42F21070FFF74BFE42F21070FFF77D
:100AC000B1FEFFF7AFFFEE49098888B2FFF73AFEA3
:100AD000EB49098888B2FFF79FFEFFF7F9FDFFF7A2
:100AE000BBFDFFF7FDFE3020E64908600A20E6491D
:100AF000C1F8FC03FFF762FDFFF760FD0020E3494A
:100B0000086040F61C40FFF71DFE40F6B830FFF7C6
:100B100083FEFFF707FCABE10120D6490860002403
:100B200017E000BFDA4800780028FBD00020D84941
:100B30000870FFF74BFCD74909680844D54908609D
:100B4000FFF7C0FCD44909680844D3490860601C19
:100B5000C4B2052CE5DBCF4800680521B0FBF1F0FD
:100B6000CC490860CC4800680521B0FBF1F0CA49C7
:100B70000860C8480068FFF771FFC8490870C54899
:100B8000006800F097F9C6490870C3480068FFF78D
:100B900065FFC4490870C048006800F08BF9C2497D
:100BA00008700024BD490978BD4A1278881800EB06
:100BB000D0714910BD4A1160BA490978BA4A127811
:100BC000881800EBD0714910B94A1160B748006825
:100BD00014283FD8B548006811460968884239D2C0
:100BE0000020A4490860FFF7ADFD0020FFF714FEC8
:100BF0000220A6490860FFF7E1FC0020A249C1F8E5
:100C0000FC03C0209F49086040F61C40FFF79AFD96
:100C100040F6B830FFF700FEFFF7D0FCFFF7CEFC40
:100C200010204FF04021C1F8FC03FFF7C7FC002063
:100C3000FFF788FD0020FFF7EFFDFFF7BFFC40F650
:100C40001C40FFF77FFD40F6B830FFF7E5FD302090
:100C50008C4908609648006814283FD8944800687A
:100C600092490968884239D2002082490860FFF71A
:100C700069FD0020FFF7D0FD022084490860FFF7DE
:100C80009DFC00208049C1F8FC03C0207D4908601C
:100C900040F61C40FFF756FD40F6B830FFF7BCFDAC
:100CA000FFF78CFCFFF78AFC20204FF04021C1F8B1
:100CB000FC03FFF783FC0020FFF744FD0020FFF753
:100CC000ABFDFFF77BFC40F61C40FFF73BFD40F619
:100CD000B830FFF7A1FD30206A490860734800680A
:100CE00032281FD87148006814281BD96F48006843
:100CF0006F490968884215D26C4800681D2808D9D8
:100D000040F6E440FFF71EFD40F6B830FFF784FDE3
:100D100037E040F61C40FFF715FD40F6B830FFF70E
:100D20007BFD2EE06248006832281FD860480068CA
:100D300014281BD95E4800685C490968884215D2AE
:100D40005B4800681E2808D940F6B830FFF7FAFC67
:100D50004FF44860FFF760FD13E040F61C40FFF7DA
:100D6000F1FC40F6B830FFF757FD0AE03020454966
:100D7000086040F61C40FFF7E5FC40F6B830FFF78E
:100D80004BFD4A480068462814D3494800681F288C
:100D900010D20020FFF7D6FC40F6B830FFF73CFD3C
:100DA000FFF70CFC40F61C40FFF7CCFC40F6B830D7
:100DB000FFF732FD3E480068462814D33B480068E0
:100DC0001F2810D240F61C40FFF7BCFC0020FFF7A4
:100DD00023FDFFF7F3FB40F61C40FFF7B3FC40F6A2
:100DE000B830FFF719FD31480068462816D330485F
:100DF0000068462812D32048006878B9FFF7DEFB68
:100E000008E00620214908600020FFF79BFC002035
:100E1000FFF702FD184800680028F2D01848006863
:100E2000012803D014480068012820D108E00020E0
:100E3000FFF788FC0020FFF7EFFC0E201349086045
:100E40000F4800680128F2D008E00020FFF77AFC84
:100E50000020FFF7E1FC00200C490860064800680C
:100E60000128F2D000200B4908600B49086000BF40
:100E700052E60000080000201400002010000020AE
:100E80000C000020FC43004000500240FC53024094
:100E90001C00002020000020240000201900002059
:100EA000180000201A0000201B0000200000002075
:100EB000040000202DE9F041014600260022002414
:100EC000002300250027002018E0DFF850C05CF860
:100ED00020C08C4511D8A0F1010CDFF8408058F8F3
:100EE0002C200CEB8C0C0CF10A03C4465CF820405F
:100EF00000EB800C0CF10A0502E0401C3428E4D31E
:100F000000BFE81AA4EB020C90FBFCF0A1EB020C72
:100F10000CFB0030C6B23046BDE8F0816C13000017
:100F200010B591EA030F48BF83F0004300F13C8104
:100F3000841A71EB030C05D2121943EB0C03001B4E
:100F400061EB0C01DFF824E14FEA1154A4EB135CD0
:100F50001EEA430F18BF9EEA445F73D023EA0E03D4
:100F6000DCF1200E21EA045143F4801332D322FA3B
:100F70000CFE10EB0E0023FA0CFE41EB0E01CCF13F
:100F8000200E03FA0EFE10EB0E0051F10001B1F538
:100F9000801FCCF1200E32D201EB045112FA0EF276
:100FA000BDE8104058BF7047401C38BF5FEA42029E
:100FB00018BF7047002814BF20F0010041F1000164
:100FC0004FEA410313F5001F38BF7047A1F1C0413C
:100FD00000F0DCB8012A43EB0302ACF1200CDCF199
:100FE0001F0E32BF4FF0000E23FA0CF310EB03007C
:100FF00041EB0451B4EB115FD0D0A1EB045101F5EA
:10100000801149085FEA300001EB04510ED350F122
:10101000000038BF12FA0EFE08D1BDE81040C9E743
:10102000401C38BF5FEA4202CAD1C3E7BDE81040A6
:101030004FEA410313F5001F38BF7047A1F1C041CB
:1010400000F0A4B89EEA445F08D011EA5E0FBDE844
:10105000104004BF01F0004100207047BDE810407F
:1010600070B500F045F800BF64FBBE3E0000E0FF35
:101070004FEA1153A3F58063D3F11E03A8BFD3F148
:10108000200C08DB4FF0004242EAC12252EA5052E3
:1010900032FA03F0704709420BD4102BC4BF002072
:1010A000704703F5787CBCF1FF3F05D04FF0FF306F
:1010B00070474FF00000704770B500F019F800BF9E
:1010C0004992248000207047F0E7B0FA80F310FACC
:1010D00003F10AD0C3F11D0303F580634FEA4150C9
:1010E0004FEA035202EBD12170474FF000007047E6
:1010F0000EF1020E2EF0030E5EF8046B364205D49C
:10110000012A43EB030515F5001F12D8012841EB16
:10111000010C1CF5001F0CD80ED14FEAD17C15F53F
:10112000001F0CEB4C0C0CF1020C08BF4CEBD37CF9
:1011300004E04FF0080C01E04FEAD37C0CEB4C05C7
:1011400026FA05F606F00706B6F1040C06D20EEBF9
:10115000860CBDE870404CF0010C6047DFE80CF0F5
:10116000090B02024FF000414FF00000A1F50021F1
:1011700070BD19461046012851EB010418BFD4F583
:10118000001484BF002001F0004170BD0808A0F5E4
:1011900000114FEA3101704710B591EA030F48BFC3
:1011A00083F000433FF5C4AE841A71EB030C07D201
:1011B00012198CF0004C43EB0C03001B61EB0C018B
:1011C000DFF8A4E14FEA1154A4EB135C1EEA430FCD
:1011D00018BF9EEA445F00F0B08023EA6E035242DB
:1011E00021EA0451C3EB6E0338BF5B1EDCF1200E15
:1011F00025D322FA0CFE10EB0E0043FA0CFE41EB55
:101200000E01CCF1200E03FA0EFE10EB0E0051F190
:101210000001CCF1200E29D412FA0EF201EB045198
:10122000BDE8104058BF7047401C1CBFB2F1004FD2
:10123000704700280CBF491C20F00100704712EBDA
:10124000020E43EB030218BF4FF0010E4EEA4202BA
:10125000ACF1200CDCF11E0E54D943FA0CFE10EB5D
:101260000E0051F1FF31CCF11E0ED5D50EF1010E5D
:1012700012FA0EFE404141EB010101EB445C5FEAD2
:101280005C5C10D910EBDE7001EB045138BFBEF18D
:10129000004FBDE8104018BF704700280CBF491C24
:1012A00020F00100704730D24FEAD42C11F5001124
:1012B00024F400641BD0B1FA81F20B3AA41AA41EE4
:1012C000D2F12003914030FA03F31943904001EB2F
:1012D000CC71002C01EB0451BDE81040A8BF704751
:1012E00001F1C0414FF0000001F000417047B0FA39
:1012F00080F310FA03F100D110BDE41A173C480541
:10130000C90AE4E701EB045110BD491001EB045197
:10131000BDE810404FEA300002E04FF00001704796
:101320004A0008BF0042F8D0B2F5001F28BF70473E
:1013300001F000414FF0000070479EEA445F07D083
:1013400011EA5E0FBDE8104004BF00210020704785
:10135000BDE8104070B5FFF7CBFE00BF40DFF63EA2
:1013600083F00041104670470000E0FF6A0E000065
:101370002A0A000011080000C30600002C06000025
:10138000900500005A050000AC0300005D0300005A
:101390000E030000F5020000AD0200008A0200000A
:1013A0000A0000000F0000001400000019000000F7
:1013B0001E00000023000000280000002D00000097
:1013C00032000000370000003C0000004100000037
:1013D00046000000F4130000000000203000000070
:1013E000C00200002414000030000020600400004F
:1013F000DC0200000000000000000000000000000F
:1014000000000000000000000000000000000000DC
:1014100000000000000000000000000000000000CC
:0414200000000000C8
:040000050000028570
:00000001FF
